{
  "contractName": "CreToBit",
  "abi": [
    {
      "inputs": [
        {
          "internalType": "contract LIHKGCOIN",
          "name": "_lihkgcoin",
          "type": "address"
        }
      ],
      "payable": false,
      "stateMutability": "nonpayable",
      "type": "constructor"
    },
    {
      "constant": true,
      "inputs": [],
      "name": "borrowFactor",
      "outputs": [
        {
          "internalType": "uint256",
          "name": "",
          "type": "uint256"
        }
      ],
      "payable": false,
      "stateMutability": "view",
      "type": "function"
    },
    {
      "constant": true,
      "inputs": [],
      "name": "creditFactor",
      "outputs": [
        {
          "internalType": "uint256",
          "name": "",
          "type": "uint256"
        }
      ],
      "payable": false,
      "stateMutability": "view",
      "type": "function"
    },
    {
      "constant": true,
      "inputs": [],
      "name": "debitFactor",
      "outputs": [
        {
          "internalType": "uint256",
          "name": "",
          "type": "uint256"
        }
      ],
      "payable": false,
      "stateMutability": "view",
      "type": "function"
    },
    {
      "constant": true,
      "inputs": [
        {
          "internalType": "address",
          "name": "",
          "type": "address"
        }
      ],
      "name": "depositedCTB",
      "outputs": [
        {
          "internalType": "uint256",
          "name": "",
          "type": "uint256"
        }
      ],
      "payable": false,
      "stateMutability": "view",
      "type": "function"
    },
    {
      "constant": true,
      "inputs": [
        {
          "internalType": "address",
          "name": "",
          "type": "address"
        }
      ],
      "name": "depositedETH",
      "outputs": [
        {
          "internalType": "uint256",
          "name": "",
          "type": "uint256"
        }
      ],
      "payable": false,
      "stateMutability": "view",
      "type": "function"
    },
    {
      "constant": true,
      "inputs": [],
      "name": "ethtouint256",
      "outputs": [
        {
          "internalType": "uint256",
          "name": "",
          "type": "uint256"
        }
      ],
      "payable": false,
      "stateMutability": "view",
      "type": "function"
    },
    {
      "constant": true,
      "inputs": [],
      "name": "governanceFactor",
      "outputs": [
        {
          "internalType": "uint256",
          "name": "",
          "type": "uint256"
        }
      ],
      "payable": false,
      "stateMutability": "view",
      "type": "function"
    },
    {
      "constant": true,
      "inputs": [],
      "name": "name",
      "outputs": [
        {
          "internalType": "string",
          "name": "",
          "type": "string"
        }
      ],
      "payable": false,
      "stateMutability": "view",
      "type": "function"
    },
    {
      "constant": true,
      "inputs": [],
      "name": "owner",
      "outputs": [
        {
          "internalType": "address",
          "name": "",
          "type": "address"
        }
      ],
      "payable": false,
      "stateMutability": "view",
      "type": "function"
    },
    {
      "constant": true,
      "inputs": [],
      "name": "uint256toeth",
      "outputs": [
        {
          "internalType": "uint256",
          "name": "",
          "type": "uint256"
        }
      ],
      "payable": false,
      "stateMutability": "view",
      "type": "function"
    },
    {
      "constant": true,
      "inputs": [],
      "name": "totalETH",
      "outputs": [
        {
          "internalType": "uint256",
          "name": "",
          "type": "uint256"
        }
      ],
      "payable": false,
      "stateMutability": "view",
      "type": "function"
    },
    {
      "constant": false,
      "inputs": [
        {
          "internalType": "address payable",
          "name": "_address",
          "type": "address"
        },
        {
          "internalType": "uint256",
          "name": "_amount",
          "type": "uint256"
        },
        {
          "internalType": "address payable",
          "name": "ctbAddress",
          "type": "address"
        }
      ],
      "name": "borrowETH",
      "outputs": [],
      "payable": true,
      "stateMutability": "payable",
      "type": "function"
    },
    {
      "constant": false,
      "inputs": [
        {
          "internalType": "address payable",
          "name": "_address",
          "type": "address"
        },
        {
          "internalType": "uint256",
          "name": "_amount",
          "type": "uint256"
        }
      ],
      "name": "paybackETH",
      "outputs": [],
      "payable": true,
      "stateMutability": "payable",
      "type": "function"
    },
    {
      "constant": false,
      "inputs": [
        {
          "internalType": "uint256",
          "name": "_amount",
          "type": "uint256"
        }
      ],
      "name": "adjustDebitFactor",
      "outputs": [],
      "payable": true,
      "stateMutability": "payable",
      "type": "function"
    },
    {
      "constant": false,
      "inputs": [
        {
          "internalType": "uint256",
          "name": "_amount",
          "type": "uint256"
        }
      ],
      "name": "adjustCrebitFactor",
      "outputs": [],
      "payable": true,
      "stateMutability": "payable",
      "type": "function"
    }
  ],
  "bytecode": "0x60806040526040518060400160405280600881526020017f437265546f4269740000000000000000000000000000000000000000000000008152506002908051906020019061004f9291906101b9565b50670c7d713b49da0000600555670f43fc2c04ee0000600655662386f26fc10000600755670de0b6b3a764000060085560016009556000809054906101000a900473ffffffffffffffffffffffffffffffffffffffff16600a60006101000a81548173ffffffffffffffffffffffffffffffffffffffff021916908373ffffffffffffffffffffffffffffffffffffffff16021790555067016345785d8a0000600b553480156100fe57600080fd5b50604051610cbe380380610cbe8339818101604052602081101561012157600080fd5b8101908080519060200190929190505050806000806101000a81548173ffffffffffffffffffffffffffffffffffffffff021916908373ffffffffffffffffffffffffffffffffffffffff16021790555033600160006101000a81548173ffffffffffffffffffffffffffffffffffffffff021916908373ffffffffffffffffffffffffffffffffffffffff1602179055505061025e565b828054600181600116156101000203166002900490600052602060002090601f016020900481019282601f106101fa57805160ff1916838001178555610228565b82800160010185558215610228579182015b8281111561022757825182559160200191906001019061020c565b5b5090506102359190610239565b5090565b61025b91905b8082111561025757600081600090555060010161023f565b5090565b90565b610a518061026d6000396000f3fe6080604052600436106100e85760003560e01c8063780bf06e1161008a578063c292614b11610059578063c292614b146103c3578063da133e0a146103ee578063f5db8bc714610419578063f8c8b6fc1461047e576100e8565b8063780bf06e146102c557806381b829a4146102f35780638da5cb5b1461034157806394e7dbb914610398576100e8565b80631ff24fee116100c65780631ff24fee146101d357806336bdee74146102415780633ac274221461026c578063673bcf3714610297576100e8565b806306fdde03146100ed578063115cf01e1461017d5780631eab07dd146101a8575b600080fd5b3480156100f957600080fd5b506101026104e3565b6040518080602001828103825283818151815260200191508051906020019080838360005b83811015610142578082015181840152602081019050610127565b50505050905090810190601f16801561016f5780820380516001836020036101000a031916815260200191505b509250505060405180910390f35b34801561018957600080fd5b50610192610581565b6040518082815260200191505060405180910390f35b3480156101b457600080fd5b506101bd610587565b6040518082815260200191505060405180910390f35b61023f600480360360608110156101e957600080fd5b81019080803573ffffffffffffffffffffffffffffffffffffffff16906020019092919080359060200190929190803573ffffffffffffffffffffffffffffffffffffffff16906020019092919050505061058d565b005b34801561024d57600080fd5b50610256610592565b6040518082815260200191505060405180910390f35b34801561027857600080fd5b50610281610597565b6040518082815260200191505060405180910390f35b6102c3600480360360208110156102ad57600080fd5b810190808035906020019092919050505061059d565b005b6102f1600480360360208110156102db57600080fd5b8101908080359060200190929190505050610783565b005b61033f6004803603604081101561030957600080fd5b81019080803573ffffffffffffffffffffffffffffffffffffffff16906020019092919080359060200190929190505050610969565b005b34801561034d57600080fd5b506103566109b4565b604051808273ffffffffffffffffffffffffffffffffffffffff1673ffffffffffffffffffffffffffffffffffffffff16815260200191505060405180910390f35b3480156103a457600080fd5b506103ad6109da565b6040518082815260200191505060405180910390f35b3480156103cf57600080fd5b506103d86109e0565b6040518082815260200191505060405180910390f35b3480156103fa57600080fd5b506104036109e6565b6040518082815260200191505060405180910390f35b34801561042557600080fd5b506104686004803603602081101561043c57600080fd5b81019080803573ffffffffffffffffffffffffffffffffffffffff1690602001909291905050506109ec565b6040518082815260200191505060405180910390f35b34801561048a57600080fd5b506104cd600480360360208110156104a157600080fd5b81019080803573ffffffffffffffffffffffffffffffffffffffff169060200190929190505050610a04565b6040518082815260200191505060405180910390f35b60028054600181600116156101000203166002900480601f0160208091040260200160405190810160405280929190818152602001828054600181600116156101000203166002900480156105795780601f1061054e57610100808354040283529160200191610579565b820191906000526020600020905b81548152906001019060200180831161055c57829003601f168201915b505050505081565b60075481565b60055481565b505050565b600090565b60085481565b6007546000809054906101000a900473ffffffffffffffffffffffffffffffffffffffff1673ffffffffffffffffffffffffffffffffffffffff166370a08231600a60009054906101000a900473ffffffffffffffffffffffffffffffffffffffff166040518263ffffffff1660e01b8152600401808273ffffffffffffffffffffffffffffffffffffffff1673ffffffffffffffffffffffffffffffffffffffff16815260200191505060206040518083038186803b15801561066057600080fd5b505afa158015610674573d6000803e3d6000fd5b505050506040513d602081101561068a57600080fd5b8101908080519060200190929190505050026000809054906101000a900473ffffffffffffffffffffffffffffffffffffffff1673ffffffffffffffffffffffffffffffffffffffff166370a08231336040518263ffffffff1660e01b8152600401808273ffffffffffffffffffffffffffffffffffffffff1673ffffffffffffffffffffffffffffffffffffffff16815260200191505060206040518083038186803b15801561073a57600080fd5b505afa15801561074e573d6000803e3d6000fd5b505050506040513d602081101561076457600080fd5b8101908080519060200190929190505050101561078057600080fd5b50565b6007546000809054906101000a900473ffffffffffffffffffffffffffffffffffffffff1673ffffffffffffffffffffffffffffffffffffffff166370a08231600a60009054906101000a900473ffffffffffffffffffffffffffffffffffffffff166040518263ffffffff1660e01b8152600401808273ffffffffffffffffffffffffffffffffffffffff1673ffffffffffffffffffffffffffffffffffffffff16815260200191505060206040518083038186803b15801561084657600080fd5b505afa15801561085a573d6000803e3d6000fd5b505050506040513d602081101561087057600080fd5b8101908080519060200190929190505050026000809054906101000a900473ffffffffffffffffffffffffffffffffffffffff1673ffffffffffffffffffffffffffffffffffffffff166370a08231336040518263ffffffff1660e01b8152600401808273ffffffffffffffffffffffffffffffffffffffff1673ffffffffffffffffffffffffffffffffffffffff16815260200191505060206040518083038186803b15801561092057600080fd5b505afa158015610934573d6000803e3d6000fd5b505050506040513d602081101561094a57600080fd5b8101908080519060200190929190505050101561096657600080fd5b50565b8173ffffffffffffffffffffffffffffffffffffffff166108fc829081150290604051600060405180830381858888f193505050501580156109af573d6000803e3d6000fd5b505050565b600160009054906101000a900473ffffffffffffffffffffffffffffffffffffffff1681565b60095481565b600b5481565b60065481565b60046020528060005260406000206000915090505481565b6003602052806000526040600020600091509050548156fea265627a7a7231582001a6f018ae4793daf2dd512e745c0f3e6fdd3d9d3f4e06278a27b367c9e213cb64736f6c63430005100032",
  "source": "pragma solidity >=0.4.22 <0.8.0;\n// SPDX-License-Identifier: MIT\n\nimport \"./LIHKGCOIN.sol\";\n\ncontract CreToBit \n{\n    LIHKGCOIN lihkgc;\n\n    // supply according to ico eth ,all remaining would be burn\n\n    // LIHKGC as governance token\n\n   \n\n  address public owner;\n  string public name = \"CreToBit\";\n  \n  mapping(address=> uint256) public depositedCTB;\n  mapping(address=> uint256) public depositedETH;\n  uint256 public debitFactor = 900000000000000000;\n  uint256 public creditFactor = 1100000000000000000;\n  uint256 public governanceFactor = 10000000000000000;\n\n  uint256 public ethtouint256 = 1000000000000000000;\n  uint256 public uint256toeth = 1;\n  \n  address lihkgcoin_address = address(lihkgc);\n//   uint256 public testNumber = SafeMath.sub(1, 2);\n  uint256 public borrowFactor = 100000000000000000;\n\n\n\n \n \n  \n\n  \n\n  \n\n  \n  \n  \n constructor(LIHKGCOIN _lihkgcoin) public\n  {\n      lihkgc = _lihkgcoin;\n      owner = msg.sender;  \n      \n  }\n\n  function totalETH() public view returns (uint256)\n    {   \n       \n        // return totalDepositedETH;\n    }\n\n  \n\n  \n  \n \n\n  function borrowETH(address payable _address,uint256 _amount,address payable ctbAddress) payable external{\n  }\n\n  function paybackETH(address payable _address,uint256 _amount) payable public {\n      _address.transfer(_amount);\n  }\n\n  function adjustDebitFactor(uint256 _amount) public payable{\n      require(lihkgc.balanceOf((msg.sender)) >= lihkgc.balanceOf(lihkgcoin_address) * governanceFactor);\n      debitFactor == _amount;\n  }\n\n  function adjustCrebitFactor(uint256 _amount) public payable{\n      require(lihkgc.balanceOf((msg.sender)) >= lihkgc.balanceOf(lihkgcoin_address) * governanceFactor);\n      creditFactor == _amount;\n  }\n\n  \n\n    \n\n\n}\n\n\n\n \n\n",
  "sourcePath": "/Users/ok/Desktop/Projects/lihkg-coin/contracts/CreToBit.sol",
  "compiler": {
    "name": "solc",
    "version": "0.5.16+commit.9c3226ce.Emscripten.clang"
  },
  "schemaVersion": "3.3.2",
  "updatedAt": "2021-02-14T04:09:19.394Z",
  "networkType": "ethereum",
  "devdoc": {
    "methods": {}
  },
  "userdoc": {
    "methods": {}
  }
}