{
  "contractName": "CreToBit",
  "abi": [
    {
      "inputs": [
        {
          "internalType": "contract LIHKGCOIN",
          "name": "_lihkgcoin",
          "type": "address"
        }
      ],
      "payable": false,
      "stateMutability": "nonpayable",
      "type": "constructor"
    },
    {
      "constant": true,
      "inputs": [],
      "name": "borrowFactor",
      "outputs": [
        {
          "internalType": "uint256",
          "name": "",
          "type": "uint256"
        }
      ],
      "payable": false,
      "stateMutability": "view",
      "type": "function"
    },
    {
      "constant": true,
      "inputs": [],
      "name": "creditFactor",
      "outputs": [
        {
          "internalType": "uint256",
          "name": "",
          "type": "uint256"
        }
      ],
      "payable": false,
      "stateMutability": "view",
      "type": "function"
    },
    {
      "constant": true,
      "inputs": [],
      "name": "debitFactor",
      "outputs": [
        {
          "internalType": "uint256",
          "name": "",
          "type": "uint256"
        }
      ],
      "payable": false,
      "stateMutability": "view",
      "type": "function"
    },
    {
      "constant": true,
      "inputs": [
        {
          "internalType": "address",
          "name": "",
          "type": "address"
        }
      ],
      "name": "depositedCTB",
      "outputs": [
        {
          "internalType": "uint256",
          "name": "",
          "type": "uint256"
        }
      ],
      "payable": false,
      "stateMutability": "view",
      "type": "function"
    },
    {
      "constant": true,
      "inputs": [
        {
          "internalType": "address",
          "name": "",
          "type": "address"
        }
      ],
      "name": "depositedETH",
      "outputs": [
        {
          "internalType": "uint256",
          "name": "",
          "type": "uint256"
        }
      ],
      "payable": false,
      "stateMutability": "view",
      "type": "function"
    },
    {
      "constant": true,
      "inputs": [],
      "name": "ethtouint256",
      "outputs": [
        {
          "internalType": "uint256",
          "name": "",
          "type": "uint256"
        }
      ],
      "payable": false,
      "stateMutability": "view",
      "type": "function"
    },
    {
      "constant": true,
      "inputs": [],
      "name": "governanceFactor",
      "outputs": [
        {
          "internalType": "uint256",
          "name": "",
          "type": "uint256"
        }
      ],
      "payable": false,
      "stateMutability": "view",
      "type": "function"
    },
    {
      "constant": true,
      "inputs": [],
      "name": "name",
      "outputs": [
        {
          "internalType": "string",
          "name": "",
          "type": "string"
        }
      ],
      "payable": false,
      "stateMutability": "view",
      "type": "function"
    },
    {
      "constant": true,
      "inputs": [
        {
          "internalType": "address",
          "name": "",
          "type": "address"
        }
      ],
      "name": "nextAvailablePayBackTime",
      "outputs": [
        {
          "internalType": "uint256",
          "name": "",
          "type": "uint256"
        }
      ],
      "payable": false,
      "stateMutability": "view",
      "type": "function"
    },
    {
      "constant": true,
      "inputs": [],
      "name": "owner",
      "outputs": [
        {
          "internalType": "address",
          "name": "",
          "type": "address"
        }
      ],
      "payable": false,
      "stateMutability": "view",
      "type": "function"
    },
    {
      "constant": true,
      "inputs": [],
      "name": "timelock",
      "outputs": [
        {
          "internalType": "uint256",
          "name": "",
          "type": "uint256"
        }
      ],
      "payable": false,
      "stateMutability": "view",
      "type": "function"
    },
    {
      "constant": true,
      "inputs": [],
      "name": "uint256toeth",
      "outputs": [
        {
          "internalType": "uint256",
          "name": "",
          "type": "uint256"
        }
      ],
      "payable": false,
      "stateMutability": "view",
      "type": "function"
    },
    {
      "constant": true,
      "inputs": [],
      "name": "totalETH",
      "outputs": [
        {
          "internalType": "uint256",
          "name": "",
          "type": "uint256"
        }
      ],
      "payable": false,
      "stateMutability": "view",
      "type": "function"
    },
    {
      "constant": false,
      "inputs": [
        {
          "internalType": "address payable",
          "name": "_address",
          "type": "address"
        },
        {
          "internalType": "uint256",
          "name": "_amount",
          "type": "uint256"
        },
        {
          "internalType": "address payable",
          "name": "ctbAddress",
          "type": "address"
        }
      ],
      "name": "borrowETH",
      "outputs": [],
      "payable": true,
      "stateMutability": "payable",
      "type": "function"
    },
    {
      "constant": false,
      "inputs": [
        {
          "internalType": "address payable",
          "name": "_address",
          "type": "address"
        },
        {
          "internalType": "uint256",
          "name": "_amount",
          "type": "uint256"
        }
      ],
      "name": "paybackETH",
      "outputs": [],
      "payable": true,
      "stateMutability": "payable",
      "type": "function"
    },
    {
      "constant": false,
      "inputs": [
        {
          "internalType": "uint256",
          "name": "_amount",
          "type": "uint256"
        }
      ],
      "name": "adjustDebitFactor",
      "outputs": [],
      "payable": true,
      "stateMutability": "payable",
      "type": "function"
    },
    {
      "constant": false,
      "inputs": [
        {
          "internalType": "uint256",
          "name": "_amount",
          "type": "uint256"
        }
      ],
      "name": "adjustCrebitFactor",
      "outputs": [],
      "payable": true,
      "stateMutability": "payable",
      "type": "function"
    }
  ],
  "bytecode": "0x60806040526040518060400160405280600881526020017f437265546f4269740000000000000000000000000000000000000000000000008152506002908051906020019061004f9291906101be565b50670c7d713b49da0000600555670f43fc2c04ee0000600655662386f26fc10000600755670de0b6b3a764000060085560016009556000809054906101000a900473ffffffffffffffffffffffffffffffffffffffff16600a60006101000a81548173ffffffffffffffffffffffffffffffffffffffff021916908373ffffffffffffffffffffffffffffffffffffffff16021790555067016345785d8a0000600b556078600c5534801561010357600080fd5b50604051610e16380380610e168339818101604052602081101561012657600080fd5b8101908080519060200190929190505050806000806101000a81548173ffffffffffffffffffffffffffffffffffffffff021916908373ffffffffffffffffffffffffffffffffffffffff16021790555033600160006101000a81548173ffffffffffffffffffffffffffffffffffffffff021916908373ffffffffffffffffffffffffffffffffffffffff16021790555050610263565b828054600181600116156101000203166002900490600052602060002090601f016020900481019282601f106101ff57805160ff191683800117855561022d565b8280016001018555821561022d579182015b8281111561022c578251825591602001919060010190610211565b5b50905061023a919061023e565b5090565b61026091905b8082111561025c576000816000905550600101610244565b5090565b90565b610ba4806102726000396000f3fe6080604052600436106100fe5760003560e01c8063780bf06e11610095578063c292614b11610064578063c292614b1461043e578063d33219b414610469578063da133e0a14610494578063f5db8bc7146104bf578063f8c8b6fc14610524576100fe565b8063780bf06e1461034057806381b829a41461036e5780638da5cb5b146103bc57806394e7dbb914610413576100fe565b80631ff24fee116100d15780631ff24fee1461024e57806336bdee74146102bc5780633ac27422146102e7578063673bcf3714610312576100fe565b806306fdde03146101035780630bf66a2f14610193578063115cf01e146101f85780631eab07dd14610223575b600080fd5b34801561010f57600080fd5b50610118610589565b6040518080602001828103825283818151815260200191508051906020019080838360005b8381101561015857808201518184015260208101905061013d565b50505050905090810190601f1680156101855780820380516001836020036101000a031916815260200191505b509250505060405180910390f35b34801561019f57600080fd5b506101e2600480360360208110156101b657600080fd5b81019080803573ffffffffffffffffffffffffffffffffffffffff169060200190929190505050610627565b6040518082815260200191505060405180910390f35b34801561020457600080fd5b5061020d61063f565b6040518082815260200191505060405180910390f35b34801561022f57600080fd5b50610238610645565b6040518082815260200191505060405180910390f35b6102ba6004803603606081101561026457600080fd5b81019080803573ffffffffffffffffffffffffffffffffffffffff16906020019092919080359060200190929190803573ffffffffffffffffffffffffffffffffffffffff16906020019092919050505061064b565b005b3480156102c857600080fd5b506102d1610694565b6040518082815260200191505060405180910390f35b3480156102f357600080fd5b506102fc610699565b6040518082815260200191505060405180910390f35b61033e6004803603602081101561032857600080fd5b810190808035906020019092919050505061069f565b005b61036c6004803603602081101561035657600080fd5b8101908080359060200190929190505050610885565b005b6103ba6004803603604081101561038457600080fd5b81019080803573ffffffffffffffffffffffffffffffffffffffff16906020019092919080359060200190929190505050610a6b565b005b3480156103c857600080fd5b506103d1610b01565b604051808273ffffffffffffffffffffffffffffffffffffffff1673ffffffffffffffffffffffffffffffffffffffff16815260200191505060405180910390f35b34801561041f57600080fd5b50610428610b27565b6040518082815260200191505060405180910390f35b34801561044a57600080fd5b50610453610b2d565b6040518082815260200191505060405180910390f35b34801561047557600080fd5b5061047e610b33565b6040518082815260200191505060405180910390f35b3480156104a057600080fd5b506104a9610b39565b6040518082815260200191505060405180910390f35b3480156104cb57600080fd5b5061050e600480360360208110156104e257600080fd5b81019080803573ffffffffffffffffffffffffffffffffffffffff169060200190929190505050610b3f565b6040518082815260200191505060405180910390f35b34801561053057600080fd5b506105736004803603602081101561054757600080fd5b81019080803573ffffffffffffffffffffffffffffffffffffffff169060200190929190505050610b57565b6040518082815260200191505060405180910390f35b60028054600181600116156101000203166002900480601f01602080910402602001604051908101604052809291908181526020018280546001816001161561010002031660029004801561061f5780601f106105f45761010080835404028352916020019161061f565b820191906000526020600020905b81548152906001019060200180831161060257829003601f168201915b505050505081565b600d6020528060005260406000206000915090505481565b60075481565b60055481565b600c54600d60008573ffffffffffffffffffffffffffffffffffffffff1673ffffffffffffffffffffffffffffffffffffffff1681526020019081526020016000205050505050565b600090565b60085481565b6007546000809054906101000a900473ffffffffffffffffffffffffffffffffffffffff1673ffffffffffffffffffffffffffffffffffffffff166370a08231600a60009054906101000a900473ffffffffffffffffffffffffffffffffffffffff166040518263ffffffff1660e01b8152600401808273ffffffffffffffffffffffffffffffffffffffff1673ffffffffffffffffffffffffffffffffffffffff16815260200191505060206040518083038186803b15801561076257600080fd5b505afa158015610776573d6000803e3d6000fd5b505050506040513d602081101561078c57600080fd5b8101908080519060200190929190505050026000809054906101000a900473ffffffffffffffffffffffffffffffffffffffff1673ffffffffffffffffffffffffffffffffffffffff166370a08231336040518263ffffffff1660e01b8152600401808273ffffffffffffffffffffffffffffffffffffffff1673ffffffffffffffffffffffffffffffffffffffff16815260200191505060206040518083038186803b15801561083c57600080fd5b505afa158015610850573d6000803e3d6000fd5b505050506040513d602081101561086657600080fd5b8101908080519060200190929190505050101561088257600080fd5b50565b6007546000809054906101000a900473ffffffffffffffffffffffffffffffffffffffff1673ffffffffffffffffffffffffffffffffffffffff166370a08231600a60009054906101000a900473ffffffffffffffffffffffffffffffffffffffff166040518263ffffffff1660e01b8152600401808273ffffffffffffffffffffffffffffffffffffffff1673ffffffffffffffffffffffffffffffffffffffff16815260200191505060206040518083038186803b15801561094857600080fd5b505afa15801561095c573d6000803e3d6000fd5b505050506040513d602081101561097257600080fd5b8101908080519060200190929190505050026000809054906101000a900473ffffffffffffffffffffffffffffffffffffffff1673ffffffffffffffffffffffffffffffffffffffff166370a08231336040518263ffffffff1660e01b8152600401808273ffffffffffffffffffffffffffffffffffffffff1673ffffffffffffffffffffffffffffffffffffffff16815260200191505060206040518083038186803b158015610a2257600080fd5b505afa158015610a36573d6000803e3d6000fd5b505050506040513d6020811015610a4c57600080fd5b81019080805190602001909291905050501015610a6857600080fd5b50565b600d60008373ffffffffffffffffffffffffffffffffffffffff1673ffffffffffffffffffffffffffffffffffffffff168152602001908152602001600020544211610ab657600080fd5b8173ffffffffffffffffffffffffffffffffffffffff166108fc829081150290604051600060405180830381858888f19350505050158015610afc573d6000803e3d6000fd5b505050565b600160009054906101000a900473ffffffffffffffffffffffffffffffffffffffff1681565b60095481565b600b5481565b600c5481565b60065481565b60046020528060005260406000206000915090505481565b6003602052806000526040600020600091509050548156fea265627a7a723158205557882501b20add62344bbff6ab637540ba4e44fcacff5e96d965e3ce2b7fb264736f6c63430005100032",
  "source": "pragma solidity >=0.4.22 <0.8.0;\n// SPDX-License-Identifier: MIT\n\nimport \"./LIHKGCOIN.sol\";\n\ncontract CreToBit \n{\n    LIHKGCOIN lihkgc;\n\n    // supply according to ico eth ,all remaining would be burn\n\n    // LIHKGC as governance token\n\n   \n\n  address public owner;\n  string public name = \"CreToBit\";\n  \n  mapping(address=> uint256) public depositedCTB;\n  mapping(address=> uint256) public depositedETH;\n  uint256 public debitFactor = 900000000000000000;\n  uint256 public creditFactor = 1100000000000000000;\n  uint256 public governanceFactor = 10000000000000000;\n\n  uint256 public ethtouint256 = 1000000000000000000;\n  uint256 public uint256toeth = 1;\n  \n  address lihkgcoin_address = address(lihkgc);\n//   uint256 public testNumber = SafeMath.sub(1, 2);\n  uint256 public borrowFactor = 100000000000000000;\n  uint256 public timelock = 2 minutes;\n  mapping (address => uint256) public nextAvailablePayBackTime;\n\n\n\n \n \n  \n\n  \n\n  \n\n  \n  \n  \n constructor(LIHKGCOIN _lihkgcoin) public\n  {\n      lihkgc = _lihkgcoin;\n      owner = msg.sender;  \n      \n  }\n\n  function totalETH() public view returns (uint256)\n    {   \n       \n        // return totalDepositedETH;\n    }\n\n  \n\n  \n  \n \n\n  function borrowETH(address payable _address,uint256 _amount,address payable ctbAddress) payable external{\n      nextAvailablePayBackTime[_address] + timelock;\n  }\n\n  function paybackETH(address payable _address,uint256 _amount) payable public {\n      require(block.timestamp > nextAvailablePayBackTime[_address]);\n      \n      _address.transfer(_amount);\n  }\n\n  function adjustDebitFactor(uint256 _amount) public payable{\n      require(lihkgc.balanceOf((msg.sender)) >= lihkgc.balanceOf(lihkgcoin_address) * governanceFactor);\n      debitFactor == _amount;\n  }\n\n  function adjustCrebitFactor(uint256 _amount) public payable{\n      require(lihkgc.balanceOf((msg.sender)) >= lihkgc.balanceOf(lihkgcoin_address) * governanceFactor);\n      creditFactor == _amount;\n  }\n\n  \n\n    \n\n\n}\n\n\n\n \n\n",
  "sourcePath": "/Users/ok/Desktop/Projects/lihkg-coin/contracts/CreToBit.sol",
  "compiler": {
    "name": "solc",
    "version": "0.5.16+commit.9c3226ce.Emscripten.clang"
  },
  "schemaVersion": "3.3.2",
  "updatedAt": "2021-02-14T04:50:56.312Z",
  "networkType": "ethereum",
  "devdoc": {
    "methods": {}
  },
  "userdoc": {
    "methods": {}
  }
}