{
  "contractName": "CreToBit",
  "abi": [
    {
      "inputs": [
        {
          "internalType": "contract LIHKGCOIN",
          "name": "_lihkgcoin",
          "type": "address"
        }
      ],
      "payable": false,
      "stateMutability": "nonpayable",
      "type": "constructor"
    },
    {
      "constant": true,
      "inputs": [],
      "name": "creditFactor",
      "outputs": [
        {
          "internalType": "uint256",
          "name": "",
          "type": "uint256"
        }
      ],
      "payable": false,
      "stateMutability": "view",
      "type": "function"
    },
    {
      "constant": true,
      "inputs": [],
      "name": "debitFactor",
      "outputs": [
        {
          "internalType": "uint256",
          "name": "",
          "type": "uint256"
        }
      ],
      "payable": false,
      "stateMutability": "view",
      "type": "function"
    },
    {
      "constant": true,
      "inputs": [
        {
          "internalType": "address",
          "name": "",
          "type": "address"
        }
      ],
      "name": "depositedCTB",
      "outputs": [
        {
          "internalType": "uint256",
          "name": "",
          "type": "uint256"
        }
      ],
      "payable": false,
      "stateMutability": "view",
      "type": "function"
    },
    {
      "constant": true,
      "inputs": [
        {
          "internalType": "address",
          "name": "",
          "type": "address"
        }
      ],
      "name": "depositedETH",
      "outputs": [
        {
          "internalType": "uint256",
          "name": "",
          "type": "uint256"
        }
      ],
      "payable": false,
      "stateMutability": "view",
      "type": "function"
    },
    {
      "constant": true,
      "inputs": [],
      "name": "ethtouint256",
      "outputs": [
        {
          "internalType": "uint256",
          "name": "",
          "type": "uint256"
        }
      ],
      "payable": false,
      "stateMutability": "view",
      "type": "function"
    },
    {
      "constant": true,
      "inputs": [],
      "name": "governanceFactor",
      "outputs": [
        {
          "internalType": "uint256",
          "name": "",
          "type": "uint256"
        }
      ],
      "payable": false,
      "stateMutability": "view",
      "type": "function"
    },
    {
      "constant": true,
      "inputs": [],
      "name": "name",
      "outputs": [
        {
          "internalType": "string",
          "name": "",
          "type": "string"
        }
      ],
      "payable": false,
      "stateMutability": "view",
      "type": "function"
    },
    {
      "constant": true,
      "inputs": [],
      "name": "owner",
      "outputs": [
        {
          "internalType": "address",
          "name": "",
          "type": "address"
        }
      ],
      "payable": false,
      "stateMutability": "view",
      "type": "function"
    },
    {
      "constant": true,
      "inputs": [],
      "name": "uint256toeth",
      "outputs": [
        {
          "internalType": "uint256",
          "name": "",
          "type": "uint256"
        }
      ],
      "payable": false,
      "stateMutability": "view",
      "type": "function"
    },
    {
      "constant": true,
      "inputs": [],
      "name": "totalETH",
      "outputs": [
        {
          "internalType": "uint256",
          "name": "",
          "type": "uint256"
        }
      ],
      "payable": false,
      "stateMutability": "view",
      "type": "function"
    },
    {
      "constant": false,
      "inputs": [
        {
          "internalType": "address payable",
          "name": "_address",
          "type": "address"
        },
        {
          "internalType": "uint256",
          "name": "_amount",
          "type": "uint256"
        },
        {
          "internalType": "address payable",
          "name": "ctbAddress",
          "type": "address"
        }
      ],
      "name": "borrowETH",
      "outputs": [],
      "payable": true,
      "stateMutability": "payable",
      "type": "function"
    },
    {
      "constant": false,
      "inputs": [
        {
          "internalType": "address payable",
          "name": "_address",
          "type": "address"
        },
        {
          "internalType": "uint256",
          "name": "_amount",
          "type": "uint256"
        }
      ],
      "name": "paybackETH",
      "outputs": [],
      "payable": true,
      "stateMutability": "payable",
      "type": "function"
    },
    {
      "constant": false,
      "inputs": [
        {
          "internalType": "uint256",
          "name": "_amount",
          "type": "uint256"
        }
      ],
      "name": "adjustDebitFactor",
      "outputs": [],
      "payable": true,
      "stateMutability": "payable",
      "type": "function"
    },
    {
      "constant": false,
      "inputs": [
        {
          "internalType": "uint256",
          "name": "_amount",
          "type": "uint256"
        }
      ],
      "name": "adjustCrebitFactor",
      "outputs": [],
      "payable": true,
      "stateMutability": "payable",
      "type": "function"
    }
  ],
  "bytecode": "0x60806040526040518060400160405280600881526020017f437265546f4269740000000000000000000000000000000000000000000000008152506002908051906020019061004f9291906101ad565b50670c7d713b49da0000600555670f43fc2c04ee0000600655662386f26fc10000600755670de0b6b3a764000060085560016009556000809054906101000a900473ffffffffffffffffffffffffffffffffffffffff16600a60006101000a81548173ffffffffffffffffffffffffffffffffffffffff021916908373ffffffffffffffffffffffffffffffffffffffff1602179055503480156100f257600080fd5b50604051610c2f380380610c2f8339818101604052602081101561011557600080fd5b8101908080519060200190929190505050806000806101000a81548173ffffffffffffffffffffffffffffffffffffffff021916908373ffffffffffffffffffffffffffffffffffffffff16021790555033600160006101000a81548173ffffffffffffffffffffffffffffffffffffffff021916908373ffffffffffffffffffffffffffffffffffffffff16021790555050610252565b828054600181600116156101000203166002900490600052602060002090601f016020900481019282601f106101ee57805160ff191683800117855561021c565b8280016001018555821561021c579182015b8281111561021b578251825591602001919060010190610200565b5b509050610229919061022d565b5090565b61024f91905b8082111561024b576000816000905550600101610233565b5090565b90565b6109ce806102616000396000f3fe6080604052600436106100dd5760003560e01c8063780bf06e1161007f57806394e7dbb91161005957806394e7dbb91461038d578063da133e0a146103b8578063f5db8bc7146103e3578063f8c8b6fc14610448576100dd565b8063780bf06e146102ba57806381b829a4146102e85780638da5cb5b14610336576100dd565b80631ff24fee116100bb5780631ff24fee146101c857806336bdee74146102365780633ac2742214610261578063673bcf371461028c576100dd565b806306fdde03146100e2578063115cf01e146101725780631eab07dd1461019d575b600080fd5b3480156100ee57600080fd5b506100f76104ad565b6040518080602001828103825283818151815260200191508051906020019080838360005b8381101561013757808201518184015260208101905061011c565b50505050905090810190601f1680156101645780820380516001836020036101000a031916815260200191505b509250505060405180910390f35b34801561017e57600080fd5b5061018761054b565b6040518082815260200191505060405180910390f35b3480156101a957600080fd5b506101b2610551565b6040518082815260200191505060405180910390f35b610234600480360360608110156101de57600080fd5b81019080803573ffffffffffffffffffffffffffffffffffffffff16906020019092919080359060200190929190803573ffffffffffffffffffffffffffffffffffffffff169060200190929190505050610557565b005b34801561024257600080fd5b5061024b61055c565b6040518082815260200191505060405180910390f35b34801561026d57600080fd5b50610276610561565b6040518082815260200191505060405180910390f35b6102b8600480360360208110156102a257600080fd5b8101908080359060200190929190505050610567565b005b6102e6600480360360208110156102d057600080fd5b810190808035906020019092919050505061074d565b005b610334600480360360408110156102fe57600080fd5b81019080803573ffffffffffffffffffffffffffffffffffffffff16906020019092919080359060200190929190505050610933565b005b34801561034257600080fd5b5061034b610937565b604051808273ffffffffffffffffffffffffffffffffffffffff1673ffffffffffffffffffffffffffffffffffffffff16815260200191505060405180910390f35b34801561039957600080fd5b506103a261095d565b6040518082815260200191505060405180910390f35b3480156103c457600080fd5b506103cd610963565b6040518082815260200191505060405180910390f35b3480156103ef57600080fd5b506104326004803603602081101561040657600080fd5b81019080803573ffffffffffffffffffffffffffffffffffffffff169060200190929190505050610969565b6040518082815260200191505060405180910390f35b34801561045457600080fd5b506104976004803603602081101561046b57600080fd5b81019080803573ffffffffffffffffffffffffffffffffffffffff169060200190929190505050610981565b6040518082815260200191505060405180910390f35b60028054600181600116156101000203166002900480601f0160208091040260200160405190810160405280929190818152602001828054600181600116156101000203166002900480156105435780601f1061051857610100808354040283529160200191610543565b820191906000526020600020905b81548152906001019060200180831161052657829003601f168201915b505050505081565b60075481565b60055481565b505050565b600090565b60085481565b6007546000809054906101000a900473ffffffffffffffffffffffffffffffffffffffff1673ffffffffffffffffffffffffffffffffffffffff166370a08231600a60009054906101000a900473ffffffffffffffffffffffffffffffffffffffff166040518263ffffffff1660e01b8152600401808273ffffffffffffffffffffffffffffffffffffffff1673ffffffffffffffffffffffffffffffffffffffff16815260200191505060206040518083038186803b15801561062a57600080fd5b505afa15801561063e573d6000803e3d6000fd5b505050506040513d602081101561065457600080fd5b8101908080519060200190929190505050026000809054906101000a900473ffffffffffffffffffffffffffffffffffffffff1673ffffffffffffffffffffffffffffffffffffffff166370a08231336040518263ffffffff1660e01b8152600401808273ffffffffffffffffffffffffffffffffffffffff1673ffffffffffffffffffffffffffffffffffffffff16815260200191505060206040518083038186803b15801561070457600080fd5b505afa158015610718573d6000803e3d6000fd5b505050506040513d602081101561072e57600080fd5b8101908080519060200190929190505050101561074a57600080fd5b50565b6007546000809054906101000a900473ffffffffffffffffffffffffffffffffffffffff1673ffffffffffffffffffffffffffffffffffffffff166370a08231600a60009054906101000a900473ffffffffffffffffffffffffffffffffffffffff166040518263ffffffff1660e01b8152600401808273ffffffffffffffffffffffffffffffffffffffff1673ffffffffffffffffffffffffffffffffffffffff16815260200191505060206040518083038186803b15801561081057600080fd5b505afa158015610824573d6000803e3d6000fd5b505050506040513d602081101561083a57600080fd5b8101908080519060200190929190505050026000809054906101000a900473ffffffffffffffffffffffffffffffffffffffff1673ffffffffffffffffffffffffffffffffffffffff166370a08231336040518263ffffffff1660e01b8152600401808273ffffffffffffffffffffffffffffffffffffffff1673ffffffffffffffffffffffffffffffffffffffff16815260200191505060206040518083038186803b1580156108ea57600080fd5b505afa1580156108fe573d6000803e3d6000fd5b505050506040513d602081101561091457600080fd5b8101908080519060200190929190505050101561093057600080fd5b50565b5050565b600160009054906101000a900473ffffffffffffffffffffffffffffffffffffffff1681565b60095481565b60065481565b60046020528060005260406000206000915090505481565b6003602052806000526040600020600091509050548156fea265627a7a7231582013cd44c430feaba503750d968cbd2b1fa8c209f436ede6d093a578b366bf5a1064736f6c63430005100032",
  "source": "pragma solidity >=0.4.22 <0.8.0;\n// SPDX-License-Identifier: MIT\n\nimport \"./LIHKGCOIN.sol\";\n\ncontract CreToBit \n{\n    LIHKGCOIN lihkgc;\n\n    // supply according to ico eth ,all remaining would be burn\n\n    // LIHKGC as governance token\n\n   \n\n  address public owner;\n  string public name = \"CreToBit\";\n  \n  mapping(address=> uint256) public depositedCTB;\n  mapping(address=> uint256) public depositedETH;\n  uint256 public debitFactor = 900000000000000000;\n  uint256 public creditFactor = 1100000000000000000;\n  uint256 public governanceFactor = 10000000000000000;\n\n  uint256 public ethtouint256 = 1000000000000000000;\n  uint256 public uint256toeth = 1;\n  \n  address lihkgcoin_address = address(lihkgc);\n  \n\n  \n\n  \n\n  \n  \n  \n constructor(LIHKGCOIN _lihkgcoin) public\n  {\n      lihkgc = _lihkgcoin;\n      owner = msg.sender;  \n      \n  }\n\n  function totalETH() public view returns (uint256)\n    {   \n       \n        // return totalDepositedETH;\n    }\n\n  \n  \n \n\n  function borrowETH(address payable _address,uint256 _amount,address payable ctbAddress) payable external{\n  }\n\n  function paybackETH(address payable _address,uint256 _amount) payable public {\n  }\n\n  function adjustDebitFactor(uint256 _amount) public payable{\n      require(lihkgc.balanceOf((msg.sender)) >= lihkgc.balanceOf(lihkgcoin_address) * governanceFactor);\n      debitFactor == _amount;\n  }\n\n  function adjustCrebitFactor(uint256 _amount) public payable{\n      require(lihkgc.balanceOf((msg.sender)) >= lihkgc.balanceOf(lihkgcoin_address) * governanceFactor);\n      creditFactor == _amount;\n  }\n\n  \n\n    \n\n\n}",
  "sourcePath": "/Users/ok/Desktop/Projects/lihkg-coin/contracts/CreToBit.sol",
  "compiler": {
    "name": "solc",
    "version": "0.5.16+commit.9c3226ce.Emscripten.clang"
  },
  "schemaVersion": "3.3.2",
  "updatedAt": "2021-02-13T16:09:27.514Z",
  "networkType": "ethereum",
  "devdoc": {
    "methods": {}
  },
  "userdoc": {
    "methods": {}
  }
}