{
  "contractName": "LIHKGCOIN",
  "abi": [
    {
      "inputs": [],
      "payable": false,
      "stateMutability": "nonpayable",
      "type": "constructor"
    },
    {
      "anonymous": false,
      "inputs": [
        {
          "indexed": true,
          "internalType": "address",
          "name": "tokenOwner",
          "type": "address"
        },
        {
          "indexed": true,
          "internalType": "address",
          "name": "spender",
          "type": "address"
        },
        {
          "indexed": false,
          "internalType": "uint256",
          "name": "tokens",
          "type": "uint256"
        }
      ],
      "name": "Approval",
      "type": "event"
    },
    {
      "anonymous": false,
      "inputs": [
        {
          "indexed": true,
          "internalType": "address",
          "name": "from",
          "type": "address"
        },
        {
          "indexed": true,
          "internalType": "address",
          "name": "to",
          "type": "address"
        },
        {
          "indexed": false,
          "internalType": "uint256",
          "name": "tokens",
          "type": "uint256"
        }
      ],
      "name": "Transfer",
      "type": "event"
    },
    {
      "constant": true,
      "inputs": [],
      "name": "decimals",
      "outputs": [
        {
          "internalType": "uint8",
          "name": "",
          "type": "uint8"
        }
      ],
      "payable": false,
      "stateMutability": "view",
      "type": "function"
    },
    {
      "constant": true,
      "inputs": [],
      "name": "fiveDemandsNotOneLessStatement",
      "outputs": [
        {
          "internalType": "string",
          "name": "",
          "type": "string"
        }
      ],
      "payable": false,
      "stateMutability": "view",
      "type": "function"
    },
    {
      "constant": true,
      "inputs": [],
      "name": "name",
      "outputs": [
        {
          "internalType": "string",
          "name": "",
          "type": "string"
        }
      ],
      "payable": false,
      "stateMutability": "view",
      "type": "function"
    },
    {
      "constant": true,
      "inputs": [],
      "name": "symbol",
      "outputs": [
        {
          "internalType": "string",
          "name": "",
          "type": "string"
        }
      ],
      "payable": false,
      "stateMutability": "view",
      "type": "function"
    },
    {
      "constant": false,
      "inputs": [],
      "name": "agreeStatement",
      "outputs": [
        {
          "internalType": "bool",
          "name": "",
          "type": "bool"
        }
      ],
      "payable": false,
      "stateMutability": "nonpayable",
      "type": "function"
    },
    {
      "constant": false,
      "inputs": [],
      "name": "claimLIHKGC",
      "outputs": [
        {
          "internalType": "bool",
          "name": "",
          "type": "bool"
        }
      ],
      "payable": true,
      "stateMutability": "payable",
      "type": "function"
    },
    {
      "constant": true,
      "inputs": [],
      "name": "totalSupply",
      "outputs": [
        {
          "internalType": "uint256",
          "name": "",
          "type": "uint256"
        }
      ],
      "payable": false,
      "stateMutability": "view",
      "type": "function"
    },
    {
      "constant": true,
      "inputs": [
        {
          "internalType": "address",
          "name": "tokenOwner",
          "type": "address"
        }
      ],
      "name": "balanceOf",
      "outputs": [
        {
          "internalType": "uint256",
          "name": "",
          "type": "uint256"
        }
      ],
      "payable": false,
      "stateMutability": "view",
      "type": "function"
    },
    {
      "constant": false,
      "inputs": [
        {
          "internalType": "address",
          "name": "receiver",
          "type": "address"
        },
        {
          "internalType": "uint256",
          "name": "numTokens",
          "type": "uint256"
        }
      ],
      "name": "transfer",
      "outputs": [
        {
          "internalType": "bool",
          "name": "",
          "type": "bool"
        }
      ],
      "payable": false,
      "stateMutability": "nonpayable",
      "type": "function"
    },
    {
      "constant": false,
      "inputs": [
        {
          "internalType": "address",
          "name": "delegate",
          "type": "address"
        },
        {
          "internalType": "uint256",
          "name": "numTokens",
          "type": "uint256"
        }
      ],
      "name": "approve",
      "outputs": [
        {
          "internalType": "bool",
          "name": "",
          "type": "bool"
        }
      ],
      "payable": false,
      "stateMutability": "nonpayable",
      "type": "function"
    },
    {
      "constant": true,
      "inputs": [
        {
          "internalType": "address",
          "name": "owner",
          "type": "address"
        },
        {
          "internalType": "address",
          "name": "delegate",
          "type": "address"
        }
      ],
      "name": "allowance",
      "outputs": [
        {
          "internalType": "uint256",
          "name": "",
          "type": "uint256"
        }
      ],
      "payable": false,
      "stateMutability": "view",
      "type": "function"
    },
    {
      "constant": false,
      "inputs": [
        {
          "internalType": "address",
          "name": "owner",
          "type": "address"
        },
        {
          "internalType": "address",
          "name": "buyer",
          "type": "address"
        },
        {
          "internalType": "uint256",
          "name": "numTokens",
          "type": "uint256"
        }
      ],
      "name": "transferFrom",
      "outputs": [
        {
          "internalType": "bool",
          "name": "",
          "type": "bool"
        }
      ],
      "payable": false,
      "stateMutability": "nonpayable",
      "type": "function"
    }
  ],
  "bytecode": "0x6080604052604051806101e001604052806101ad8152602001620011ea6101ad91396000908051906020019062000038929190620000d8565b506a01a784457e508ee96400006005553480156200005557600080fd5b5062000066620000ce60201b60201c565b60058190555069d3c21bcecceda1000000600160003373ffffffffffffffffffffffffffffffffffffffff1673ffffffffffffffffffffffffffffffffffffffff168152602001908152602001600020819055506000676124fee993bc000090505062000187565b6000600554905090565b828054600181600116156101000203166002900490600052602060002090601f016020900481019282601f106200011b57805160ff19168380011785556200014c565b828001600101855582156200014c579182015b828111156200014b5782518255916020019190600101906200012e565b5b5090506200015b91906200015f565b5090565b6200018491905b808211156200018057600081600090555060010162000166565b5090565b90565b61105380620001976000396000f3fe6080604052600436106100a75760003560e01c806370a082311161006457806370a08231146102c057806395d89b4114610325578063a9059cbb146103b5578063dc397ab714610428578063dd62ed3e146104b8578063fb28a82f1461053d576100a7565b806306fdde03146100ac578063095ea7b31461013c57806318160ddd146101af57806323b872dd146101da57806323d8bcbe1461026d578063313ce5671461028f575b600080fd5b3480156100b857600080fd5b506100c161056c565b6040518080602001828103825283818151815260200191508051906020019080838360005b838110156101015780820151818401526020810190506100e6565b50505050905090810190601f16801561012e5780820380516001836020036101000a031916815260200191505b509250505060405180910390f35b34801561014857600080fd5b506101956004803603604081101561015f57600080fd5b81019080803573ffffffffffffffffffffffffffffffffffffffff169060200190929190803590602001909291905050506105a5565b604051808215151515815260200191505060405180910390f35b3480156101bb57600080fd5b506101c4610697565b6040518082815260200191505060405180910390f35b3480156101e657600080fd5b50610253600480360360608110156101fd57600080fd5b81019080803573ffffffffffffffffffffffffffffffffffffffff169060200190929190803573ffffffffffffffffffffffffffffffffffffffff169060200190929190803590602001909291905050506106a1565b604051808215151515815260200191505060405180910390f35b610275610a21565b604051808215151515815260200191505060405180910390f35b34801561029b57600080fd5b506102a4610bf6565b604051808260ff1660ff16815260200191505060405180910390f35b3480156102cc57600080fd5b5061030f600480360360208110156102e357600080fd5b81019080803573ffffffffffffffffffffffffffffffffffffffff169060200190929190505050610bfb565b6040518082815260200191505060405180910390f35b34801561033157600080fd5b5061033a610c44565b6040518080602001828103825283818151815260200191508051906020019080838360005b8381101561037a57808201518184015260208101905061035f565b50505050905090810190601f1680156103a75780820380516001836020036101000a031916815260200191505b509250505060405180910390f35b3480156103c157600080fd5b5061040e600480360360408110156103d857600080fd5b81019080803573ffffffffffffffffffffffffffffffffffffffff16906020019092919080359060200190929190505050610c7d565b604051808215151515815260200191505060405180910390f35b34801561043457600080fd5b5061043d610e64565b6040518080602001828103825283818151815260200191508051906020019080838360005b8381101561047d578082015181840152602081019050610462565b50505050905090810190601f1680156104aa5780820380516001836020036101000a031916815260200191505b509250505060405180910390f35b3480156104c457600080fd5b50610527600480360360408110156104db57600080fd5b81019080803573ffffffffffffffffffffffffffffffffffffffff169060200190929190803573ffffffffffffffffffffffffffffffffffffffff169060200190929190505050610f02565b6040518082815260200191505060405180910390f35b34801561054957600080fd5b50610552610f89565b604051808215151515815260200191505060405180910390f35b6040518060400160405280600981526020017f4c69686b67636f696e000000000000000000000000000000000000000000000081525081565b600081600460003373ffffffffffffffffffffffffffffffffffffffff1673ffffffffffffffffffffffffffffffffffffffff16815260200190815260200160002060008573ffffffffffffffffffffffffffffffffffffffff1673ffffffffffffffffffffffffffffffffffffffff168152602001908152602001600020819055508273ffffffffffffffffffffffffffffffffffffffff163373ffffffffffffffffffffffffffffffffffffffff167f8c5be1e5ebec7d5bd14f71427d1e84f3dd0314c0f7b2291e5b200ac8c7c3b925846040518082815260200191505060405180910390a36001905092915050565b6000600554905090565b6000600160008573ffffffffffffffffffffffffffffffffffffffff1673ffffffffffffffffffffffffffffffffffffffff168152602001908152602001600020548211156106ef57600080fd5b600460008573ffffffffffffffffffffffffffffffffffffffff1673ffffffffffffffffffffffffffffffffffffffff16815260200190815260200160002060003373ffffffffffffffffffffffffffffffffffffffff1673ffffffffffffffffffffffffffffffffffffffff1681526020019081526020016000205482111561077857600080fd5b6107ca82600160008773ffffffffffffffffffffffffffffffffffffffff1673ffffffffffffffffffffffffffffffffffffffff16815260200190815260200160002054610feb90919063ffffffff16565b600160008673ffffffffffffffffffffffffffffffffffffffff1673ffffffffffffffffffffffffffffffffffffffff1681526020019081526020016000208190555061089c82600460008773ffffffffffffffffffffffffffffffffffffffff1673ffffffffffffffffffffffffffffffffffffffff16815260200190815260200160002060003373ffffffffffffffffffffffffffffffffffffffff1673ffffffffffffffffffffffffffffffffffffffff16815260200190815260200160002054610feb90919063ffffffff16565b600460008673ffffffffffffffffffffffffffffffffffffffff1673ffffffffffffffffffffffffffffffffffffffff16815260200190815260200160002060003373ffffffffffffffffffffffffffffffffffffffff1673ffffffffffffffffffffffffffffffffffffffff1681526020019081526020016000208190555061096e82600160008673ffffffffffffffffffffffffffffffffffffffff1673ffffffffffffffffffffffffffffffffffffffff1681526020019081526020016000205461100290919063ffffffff16565b600160008573ffffffffffffffffffffffffffffffffffffffff1673ffffffffffffffffffffffffffffffffffffffff168152602001908152602001600020819055508273ffffffffffffffffffffffffffffffffffffffff168473ffffffffffffffffffffffffffffffffffffffff167fddf252ad1be2c89b69c2b068fc378daa952ba7f163c4a11628f55a4df523b3ef846040518082815260200191505060405180910390a3600190509392505050565b600080676124fee993bc0000905060011515600260003373ffffffffffffffffffffffffffffffffffffffff1673ffffffffffffffffffffffffffffffffffffffff16815260200190815260200160002060009054906101000a900460ff161515148015610adf575060001515600360003373ffffffffffffffffffffffffffffffffffffffff1673ffffffffffffffffffffffffffffffffffffffff16815260200190815260200160002060009054906101000a900460ff161515145b610ae857600080fd5b80600160003373ffffffffffffffffffffffffffffffffffffffff1673ffffffffffffffffffffffffffffffffffffffff168152602001908152602001600020600082825401925050819055503373ffffffffffffffffffffffffffffffffffffffff163073ffffffffffffffffffffffffffffffffffffffff167fddf252ad1be2c89b69c2b068fc378daa952ba7f163c4a11628f55a4df523b3ef836040518082815260200191505060405180910390a36001600360003373ffffffffffffffffffffffffffffffffffffffff1673ffffffffffffffffffffffffffffffffffffffff16815260200190815260200160002060006101000a81548160ff0219169083151502179055505090565b601281565b6000600160008373ffffffffffffffffffffffffffffffffffffffff1673ffffffffffffffffffffffffffffffffffffffff168152602001908152602001600020549050919050565b6040518060400160405280600681526020017f4c49484b4743000000000000000000000000000000000000000000000000000081525081565b6000600160003373ffffffffffffffffffffffffffffffffffffffff1673ffffffffffffffffffffffffffffffffffffffff16815260200190815260200160002054821115610ccb57600080fd5b610d1d82600160003373ffffffffffffffffffffffffffffffffffffffff1673ffffffffffffffffffffffffffffffffffffffff16815260200190815260200160002054610feb90919063ffffffff16565b600160003373ffffffffffffffffffffffffffffffffffffffff1673ffffffffffffffffffffffffffffffffffffffff16815260200190815260200160002081905550610db282600160008673ffffffffffffffffffffffffffffffffffffffff1673ffffffffffffffffffffffffffffffffffffffff1681526020019081526020016000205461100290919063ffffffff16565b600160008573ffffffffffffffffffffffffffffffffffffffff1673ffffffffffffffffffffffffffffffffffffffff168152602001908152602001600020819055508273ffffffffffffffffffffffffffffffffffffffff163373ffffffffffffffffffffffffffffffffffffffff167fddf252ad1be2c89b69c2b068fc378daa952ba7f163c4a11628f55a4df523b3ef846040518082815260200191505060405180910390a36001905092915050565b60008054600181600116156101000203166002900480601f016020809104026020016040519081016040528092919081815260200182805460018160011615610100020316600290048015610efa5780601f10610ecf57610100808354040283529160200191610efa565b820191906000526020600020905b815481529060010190602001808311610edd57829003601f168201915b505050505081565b6000600460008473ffffffffffffffffffffffffffffffffffffffff1673ffffffffffffffffffffffffffffffffffffffff16815260200190815260200160002060008373ffffffffffffffffffffffffffffffffffffffff1673ffffffffffffffffffffffffffffffffffffffff16815260200190815260200160002054905092915050565b6000803390506001600260008373ffffffffffffffffffffffffffffffffffffffff1673ffffffffffffffffffffffffffffffffffffffff16815260200190815260200160002060006101000a81548160ff0219169083151502179055505090565b600082821115610ff757fe5b818303905092915050565b60008082840190508381101561101457fe5b809150509291505056fea265627a7a7231582041f0167e246847af075877bc1ce365a0c70c1f6c1e8461943bd49db8a3f94d5164736f6c63430005100032312e436f6d706c657465207769746864726177616c206f6620746865206578747261646974696f6e2062696c6c2066726f6d20746865206c656769736c61746976652070726f6365737320322e52657472616374696f6e206f66207468652072696f742063686172616374657269736174696f6e20332e52656c6561736520616e642065786f6e65726174696f6e206f662061727265737465642070726f7465737465727320342e45737461626c6973686d656e74206f6620616e20696e646570656e64656e7420636f6d6d697373696f6e206f6620696e717569727920696e746f20706f6c69636520636f6e6475637420616e6420757365206f6620666f72636520647572696e67207468652070726f746573747320352e52657369676e6174696f6e206f6620436172726965204c616d20616e642074686520696d706c656d656e746174696f6e206f6620756e6976657273616c20737566667261676520666f72204c656769736c617469766520436f756e63696c20656c656374696f6e7320616e6420666f722074686520656c656374696f6e206f662074686520636869656620657865637574697665",
  "source": "// SPDX-License-Identifier: MIT\npragma solidity >=0.4.22 <0.8.0;\n\n\n\ncontract LIHKGCOIN {\n  string public constant name = \"Lihkgcoin\";\n  string public constant symbol = \"LIHKGC\";\n  uint8 public constant decimals = 18;\n \n   string public fiveDemandsNotOneLessStatement= \"1.Complete withdrawal of the extradition bill from the legislative process 2.Retraction of the riot characterisation 3.Release and exoneration of arrested protesters 4.Establishment of an independent commission of inquiry into police conduct and use of force during the protests 5.Resignation of Carrie Lam and the implementation of universal suffrage for Legislative Council elections and for the election of the chief executive\";\n \n \n \n   event Approval(address indexed tokenOwner, address indexed spender, uint tokens);\n   event Transfer(address indexed from, address indexed to, uint tokens);\n \n \n   mapping(address => uint256) balances;\n \n   mapping (address => bool) fiveDemandsNotOneLess;\n   mapping (address => bool) claimed;\n \n   mapping(address => mapping (address => uint256)) allowed;\n  \n   uint256 totalSupply_ = 2000001000000000000000000;\n \n   using SafeMath for uint256;\n \n  \n  constructor() public { \n   totalSupply_ = totalSupply();\n   balances[msg.sender] = 1000000000000000000000000;\n   uint256 claimReward = 7000000000000000000;\n   \n   } \n \n \n \n   function agreeStatement() public  returns (bool)\n   {\n       address user;\n       user = msg.sender;\n       fiveDemandsNotOneLess[user] = true;\n      \n   }\n \n   function claimLIHKGC() public  payable returns (bool)\n   {\n      \n    uint256 claimAmount =   7000000000000000000;\n    require(fiveDemandsNotOneLess[msg.sender] == true && claimed[msg.sender] == false);\n    balances[msg.sender] += claimAmount;\n    emit Transfer(address(this), msg.sender, claimAmount);\n    claimed[msg.sender] = true;\n   }\n \n \n \n   function totalSupply() public view returns (uint256) {\n   return totalSupply_;\n   }\n  \n   function balanceOf(address tokenOwner) public view returns (uint) {\n       return balances[tokenOwner];\n   }\n \n   function transfer(address receiver, uint numTokens) public returns (bool) {\n       require(numTokens <= balances[msg.sender]);\n       balances[msg.sender] = balances[msg.sender].sub(numTokens);\n       balances[receiver] = balances[receiver].add(numTokens);\n       emit Transfer(msg.sender, receiver, numTokens);\n       return true;\n   }\n \n   function approve(address delegate, uint numTokens) public returns (bool) {\n       allowed[msg.sender][delegate] = numTokens;\n       emit Approval(msg.sender, delegate, numTokens);\n       return true;\n   }\n \n   function allowance(address owner, address delegate) public view returns (uint) {\n       return allowed[owner][delegate];\n   }\n \n   function transferFrom(address owner, address buyer, uint numTokens) public returns (bool) {\n       require(numTokens <= balances[owner]);   \n       require(numTokens <= allowed[owner][msg.sender]);\n  \n       balances[owner] = balances[owner].sub(numTokens);\n       allowed[owner][msg.sender] = allowed[owner][msg.sender].sub(numTokens);\n       balances[buyer] = balances[buyer].add(numTokens);\n       emit Transfer(owner, buyer, numTokens);\n       return true;\n   }\n \n \n}\n \nlibrary SafeMath {\n   function sub(uint256 a, uint256 b) internal pure returns (uint256) {\n     assert(b <= a);\n     return a - b;\n   }\n  \n   function add(uint256 a, uint256 b) internal pure returns (uint256) {\n     uint256 c = a + b;\n     assert(c >= a);\n     return c;\n   }\n\n}\n",
  "sourcePath": "/Users/ok/Desktop/Projects/lihkg-coin/contracts/LIHKGCOIN.sol",
  "compiler": {
    "name": "solc",
    "version": "0.5.16+commit.9c3226ce.Emscripten.clang"
  },
  "schemaVersion": "3.3.2",
  "updatedAt": "2021-02-13T16:09:27.505Z",
  "networkType": "ethereum",
  "devdoc": {
    "methods": {}
  },
  "userdoc": {
    "methods": {}
  }
}